:020000040000FA
:0400000040EF01F0DC
:100008005E82D9CF7BF0DACF7CF0F3CF7DF0F4CFEE
:100018007EF0F6CF7FF0F7CF80F0F8CF81F0F5CF04
:1000280082F09EAA16D1AECF9BF000019C6BD8D06F
:100038003C0EBE6EBECF67FF8C848C82A3D0000EB0
:10004800BE6EBECF67FF8C8004D1500E676E1E0E49
:10005800BE6E98D0500EBE6E140E676E93D03C0ED6
:10006800BE6EBECF67FF8C948C928CD0460EBE6E4F
:10007800460E676E8C908C828C94EBD0000EBE6E10
:10008800BECF67FF8C808D808D828D94E2D0000E6C
:10009800BE6EBECF67FF8C808D808D848D92D9D047
:1000A800F0EC15F028C093F029C094F02AC095F020
:1000B8002BC096F08B0E4D6E000E4E6EA90E4F6E35
:1000C800100E506E93C051F094C052F095C053F08A
:1000D80096C054F058EC08F08B0E026E000E036EBA
:1000E80043EC1AF0B6D059EC14F028C097F029C0A8
:1000F80098F02AC099F02BC09AF0830E4D6E000E2E
:100108004E6EA40E4F6E100E506E97C051F098C0F0
:1001180052F099C053F09AC054F058EC08F0830E8E
:10012800026E000E036E43EC1AF093D08D8091D0CE
:10013800000EBE6EBECF67FF8C80A30E00017A6FE3
:10014800570E796F020EE82EFED7792FFCD77A2F3B
:10015800FAD700F01E0E40D0000EBE6EBECF67FF6D
:100168008C80520E00017A6F2B0E796F000EE82EEC
:10017800FED7792FFCD77A2FFAD700F01E0EBE6E65
:10018800BECF67FF8C9065D0000EBE6EBECF67FFF6
:100198008C80A30E00017A6F570E796F020EE82E3D
:1001A800FED7792FFCD77A2FFAD700F0F2D7000EB6
:1001B800BE6EBECF67FF8C80F40E00017A6F820E90
:1001C800796F050EE82EFED7792FFCD77A2FFAD74C
:1001D800C1D78C828C948C0EBE6EBECF67FF39D08F
:1001E8009BC079F09CC07AF07A51000AD8A431D02B
:1001F8007951420AD8B433D7060AD8B4D8D7030AF3
:10020800D8B4E7D70F0AD8B442D7010AD8B42ED742
:10021800050AD8B41AD71E0AD8B41CD7010AD8B40C
:100228000ED7320AD8B43CD7070AD8B401D7090A7E
:10023800D8B47CD7190AD8B456D70C0AD8B41ED764
:10024800FA0AD8B4A1D7010AD8B486D7030AD8B411
:100258006FD79E9A82C0F5FF81C0F8FF80C0F7FF74
:100268007FC0F6FF7EC0F4FF7DC0F3FF7CC0DAFFDD
:0C0278007BC0D9FF5E921100ECEF19F082
:10100000000000803F000020410000C84200007A3C
:101010004400401C460050C3470024744980961881
:101020004B20BCBE4C286B6E4EF9021550EC78ADCF
:1010300060CAF249710000803FCDCCCC3D0AD72375
:101040003C6F12833A17B7D138ACC52737BD378606
:101050003595BFD63377CC2B325F708930FFE6DB16
:101060002E08E53C1E6042A20D010000000A0000AF
:101070000064000000E803000010270000A08601C3
:101080000040420F008096980000E1F50500CA9AE2
:101090003B555341525420696E697469616C697A99
:0F10A00065642100252E316600252E3266000082
:1010B000510E0001646F000E656FA8D3250E7819DC
:1010C000D8B409D04DC0D9FF4EC0DAFF78C0DFFFD9
:1010D0004D4A4E2A9BD3000E676F000E666F4FC0BD
:1010E000F6FF50C0F7FF0800F5502E0AD8A42FD005
:1010F000678D4F4A502A000E736F000E726F1CD01E
:1011000072C001F073C002F0000E046E0A0E036E8E
:1011100030EC1AF04FC0F6FF50C0F7FF0800F55052
:101120000126000E0222D00E01240001726FFF0E74
:101130000220736F4F4A502A4FC0F6FF50C0F7FF8E
:101140000800F55055EC1AF0D8A009D0D9D7000EF8
:10115000736F000E726F678902D0678512D04FC01F
:10116000F6FF50C0F7FF4F4A502A0800F5CF78F03D
:1011700000017851000AD8B455D3660AD8B4EDD727
:1011800045D3070E6715D8B40CD367A904D0000E59
:10119000736F060E726F64C0D9FF65C0DAFFDECFD1
:1011A00074F0DECF75F0DECF76F0DECF77F0040E90
:1011B0006427000E652377AF15D074C001F075C0A9
:1011C00002F076C003F077C004F003EC1AF001C01F
:1011D00074F002C075F003C076F004C077F0030E1F
:1011E00000016613000E6D6F000E6C6F74C001F08D
:1011F00075C002F076C003F077C004F0000E056EF3
:10120000000E066E000E076E000E086E2DEC17F035
:10121000D8B083D0000176357735820F6C6F6D6B57
:10122000FF0E6D236C07D8A06D076CC001F06DC078
:1012300002F0000E046E030E036E30EC1AF001C0D3
:101240006CF002C06DF06CC007F06DC008F0000ECD
:101250000A6E0A0E096EB4EC17F007C06CF008C0F5
:101260006DF000016DAF03D06C07D8A06D076C5115
:10127000000819EC0CF028C06EF029C06FF02AC0ED
:1012800070F02BC071F06EC00FF06FC010F070C026
:1012900011F071C012F074C013F075C014F076C074
:1012A00015F077C016F001EC0EF00FC06EF010C014
:1012B0006FF011C070F012C071F06EC001F06FC01D
:1012C00002F070C003F071C004F0000E056E000E55
:1012D000066E800E076E3F0E086E68EC16F0D8B0F2
:1012E00005D000016C07D8A06D0717D06EC001F0C3
:1012F0006FC002F070C003F071C004F0000E056E04
:10130000000E066E200E076E410E086E68EC16F099
:10131000D8A003D000016C4B6D2B000173BF06D029
:10132000735121E10D0E725DD8B01DD074C035F03F
:1013300075C036F076C037F077C038F0725130ECB7
:1013400011F028C039F029C03AF02AC03BF02BC078
:101350003CF0AAEC0FF035C074F036C075F037C021
:1013600076F038C077F000016DBF06D06D5131E1E5
:101370000A0E6C5DD8B02DD074C001F075C002F0BB
:1013800076C003F077C004F0000E056E000E066E06
:10139000000E076E000E086E2DEC17F0D8B064D06A
:1013A00074C028F075C029F076C02AF077C02BF001
:1013B000D0EC16F0285029102A102B10D8A454D0A5
:1013C00000016DBF51D06D5104E1020E6C5DD8A0DB
:1013D0004BD06EC001F06FC002F070C003F071C05E
:1013E00004F05F0E056E700E066E890E076E400EDD
:1013F000086E68EC16F0D8B003D00001F70E02D0EA
:101400000001F80E6C27FF0E6D236C5119EC0CF0E7
:1014100028C06EF029C06FF02AC070F02BC071F0A8
:1014200074C001F075C002F076C003F077C004F01C
:101430006EC005F06FC006F070C007F071C008F014
:1014400076EC15F001C068F002C069F003C06AF0E4
:1014500004C06BF0000E0001746F000E756F000E7B
:10146000766F000E776F3CD074C028F075C029F0FD
:1014700076C02AF077C02BF0D0EC16F028C068F0C8
:1014800029C069F02AC06AF02BC06BF074C045F027
:1014900075C046F076C047F077C048F068C001F0EC
:1014A00069C002F06AC003F06BC004F0000EB9EC32
:1014B00013F001C049F002C04AF003C04BF004C071
:1014C0004CF072EC19F045C074F046C075F047C09E
:1014D00076F048C077F0000E00016D6F000E6C6F63
:1014E000010E786F7851040D690EF324F66E100E1C
:1014F000F420F76E0900F550685D0900F550695950
:101500000900F5506A590900F5506B59D8A005D06B
:10151000782B0A0E7819D8A4E5D7030E6615556EF8
:10152000000E6715566E55505610D8B451D04DC0A8
:10153000D9FF4EC0DAFF2D0EDF6E4D4A4E2A48D03D
:1015400068C001F069C002F06AC003F06BC004F02B
:101550007851040D690EF324F66E100EF420F76E28
:101560000900F5CF05F00900F5CF06F00900F5CF29
:1015700007F00A00F5CF08F0F6EC17F001C06EF0A6
:1015800002C06FF003C070F004C071F06EC001F0D3
:101590006FC002F070C003F071C004F00A0E056E57
:1015A000000E066E000E076E000E086EE8EC18F0D6
:1015B00001C06EF002C06FF003C070F004C071F0A3
:1015C00000016E51300F4DC0D9FF4EC0DAFFB4D7C5
:1015D00078077829D8B40CD0B3D74DC0D9FF4EC006
:1015E000DAFF300EDF6E4D4A4E2A6C07D8A06D0729
:1015F0006DBF05D06D51F1E16C05D8B0EED773BF6A
:1016000009D0735104E1090E725DD8A003D0080E11
:10161000786F02D072C078F07851725F000E735B01
:101620007851D8B408D04DC0D9FF4EC0DAFF2E0E85
:10163000DF6E4D4A4E2A785119EC0CF028C060F04C
:1016400029C061F02AC062F02BC063F074C013F0AF
:1016500075C014F076C015F077C016F060C00FF0BA
:1016600061C010F062C011F063C012F001EC0EF026
:101670000FC028F010C029F011C02AF012C02BF0C2
:10168000D0EC16F028C068F029C069F02AC06AF0D2
:101690002BC06BF070D068C001F069C002F06AC066
:1016A00003F06BC004F07851040D690EF324F66E5C
:1016B000100EF420F76E0900F5CF05F00900F5CF04
:1016C00006F00900F5CF07F00A00F5CF08F0F6ECB8
:1016D00017F001C06EF002C06FF003C070F004C0DC
:1016E00071F06EC001F06FC002F070C003F071C005
:1016F00004F00A0E056E000E066E000E076E000E58
:10170000086EE8EC18F001C06EF002C06FF003C084
:1017100070F004C071F000016E51300F4DC0D9FF60
:101720004EC0DAFFDF6E4D4A4E2A68C001F069C034
:1017300002F06AC003F06BC004F07851040D690E2A
:10174000F324F66E100EF420F76E0900F5CF05F0C5
:101750000900F5CF06F00900F5CF07F00A00F5CF34
:1017600008F0E8EC18F001C068F002C069F003C0AE
:101770006AF004C06BF0000178077829D8B40CD067
:101780008AD74DC0D9FF4EC0DAFF300EDF6E4D4A0A
:101790004E2A7207D8A0730772517311D8B436D08D
:1017A000F0D772517311D8A408D0685169116A1129
:1017B0006B11D8A402D0724B732B7851556E566AB8
:1017C0007251555C5650800A576E7351800A5758B3
:1017D000D8A00BD07851556E566A5550725D735132
:1017E000800A576E5650800A5758030E6615556E7C
:1017F000000E6715566E55505610D8B407D04DC020
:10180000D9FF4EC0DAFF2D0EDF6E62D44FC0F6FF57
:1018100050C0F7FF4F4A502A0800F5CF78F07851B2
:10182000D8A44CD44DC0D9FF4EC0DAFF000EDF6EF5
:101830001200306E30AEF3D0306C3050800A120F90
:10184000D8A088D0000E0A6E0A0E096E000E046E33
:10185000640E036E3050016E026A01BE0206B0ECE7
:1018600018F001C007F002C008F0B4EC17F0090E40
:1018700007260750040D350EF324F66E100EF420E3
:10188000F76E0900F5CF13F00900F5CF14F0090049
:10189000F5CF15F00A00F5CF16F0000E0A6E640EB3
:1018A000096E3050076E086A07BE0806B4EC17F0E0
:1018B000120E07260750040D350EF324F66E100E97
:1018C000F420F76E0900F5CF0FF00900F5CF10F006
:1018D0000900F5CF11F00A00F5CF12F001EC0EF07F
:1018E0000FC02CF010C02DF011C02EF012C02FF040
:1018F0002CC00FF02DC010F02EC011F02FC012F030
:10190000000E046E0A0E036E3050016E026A01BEB4
:101910000206B0EC18F00150040D350EF324F66EFB
:10192000100EF420F76E0900F5CF13F00900F5CF83
:1019300014F00900F5CF15F00A00F5CF16F001EC10
:101940000EF00FC028F010C029F011C02AF012C00C
:101950002BF012003050800A750FD8A04BD0000E2B
:101960000A6E0A0E096E3050076E086A07BE080636
:10197000B4EC17F0090E07260750040D350EF324BA
:10198000F66E100EF420F76E0900F5CF0FF0090087
:10199000F5CF10F00900F5CF11F00A00F5CF12F0E5
:1019A000000E046E0A0E036E3050016E026A01BE14
:1019B0000206B0EC18F00150040D350EF324F66E5B
:1019C000100EF420F76E0900F5CF13F00900F5CFE3
:1019D00014F00900F5CF15F00A00F5CF16F001EC70
:1019E0000EF00FC028F010C029F011C02AF012C06C
:1019F0002BF012003050040D350EF324F66E100E4D
:101A0000F420F76E0900F5CF28F00900F5CF29F092
:101A10000900F5CF2AF00A00F5CF2BF01200305064
:101A2000800A120FD8A088D0000E0A6E0A0E096E26
:101A3000000E046E640E036E3050016E026A01BE29
:101A40000206B0EC18F001C007F002C008F0B4ECD8
:101A500017F0090E07260750040D010EF324F66E49
:101A6000100EF420F76E0900F5CF13F00900F5CF42
:101A700014F00900F5CF15F00A00F5CF16F0000EAE
:101A80000A6E640E096E3050076E086A07BE0806BB
:101A9000B4EC17F0120E07260750040D010EF324C4
:101AA000F66E100EF420F76E0900F5CF0FF0090066
:101AB000F5CF10F00900F5CF11F00A00F5CF12F0C4
:101AC00001EC0EF00FC02CF010C02DF011C02EF064
:101AD00012C02FF02CC00FF02DC010F02EC011F04E
:101AE0002FC012F0000E046E0A0E036E3050016E0D
:101AF000026A01BE0206B0EC18F00150040D010E9E
:101B0000F324F66E100EF420F76E0900F5CF13F0F3
:101B10000900F5CF14F00900F5CF15F00A00F5CF54
:101B200016F001EC0EF00FC028F010C029F011C023
:101B30002AF012C02BF012003050800A750FD8A086
:101B40004BD0000E0A6E0A0E096E3050076E086AFE
:101B500007BE0806B4EC17F0090E07260750040D5F
:101B6000010EF324F66E100EF420F76E0900F5CF87
:101B70000FF00900F5CF10F00900F5CF11F00A00C1
:101B8000F5CF12F0000E046E0A0E036E3050016E97
:101B9000026A01BE0206B0EC18F00150040D010EFD
:101BA000F324F66E100EF420F76E0900F5CF13F053
:101BB0000900F5CF14F00900F5CF15F00A00F5CFB4
:101BC00016F001EC0EF00FC028F010C029F011C083
:101BD0002AF012C02BF012003050040D010EF32435
:101BE000F66E100EF420F76E0900F5CF28F009000C
:101BF000F5CF29F00900F5CF2AF00A00F5CF2BF038
:101C000012001250800B1B6E12501224216E11BE56
:101C100021802150D8B40DD02128D8A408D0000E9E
:101C20000F6E000E106E000E116E000E126E118EF1
:101C300008D0000E0F6E000E106E000E116E000E1A
:101C4000126E1650800B1B1A16501624206E15BEED
:101C500020802050D8B40DD02028D8A408D0000E61
:101C6000136E000E146E000E156E000E166E158E9D
:101C700008D0000E136E000E146E000E156E000ECE
:101C8000166E2050D8B403D02150D8A409D0000E2D
:101C90000F6E000E106E000E116E000E126E12000E
:101CA00015500F02F3CF26F0F4CF27F026501C6E0C
:101CB0001D6A1E6A1F6A2750226E236A246A256ADB
:101CC00014501002F3CF26F0F4CF27F026501C2634
:101CD000000E1D221E221F2227502226000E232224
:101CE0002422252213501102F3CF26F0F4CF27F03F
:101CF00026501C26000E1D221E221F22275022269F
:101D0000000E2322242225221EC01FF01DC01EF01B
:101D10001CC01DF01C6A13501002F3CF26F0F4CF44
:101D200027F026501C2627501D22000E1E22000ED2
:101D30001F2214500F02F3CF26F0F4CF27F02650C5
:101D40001C2627501D22000E1E22000E1F221EC020
:101D50001FF01DC01EF01CC01DF01C6A13500F02A6
:101D6000F3CF26F0F4CF27F026501C2627501D2253
:101D7000000E1E22000E1F2215501002F3CF26F077
:101D8000F4CF27F02650222627502322000E2422AB
:101D9000000E252214501102F3CF26F0F4CF27F0C5
:101DA0002650222627502322000E2422000E252210
:101DB00015501102F3CF26F0F4CF27F02650176EFE
:101DC0002750186E196A1A6A19C01AF018C019F04B
:101DD00017C018F0176A17502226185023221950DE
:101DE00024221A5025221CC017F01DC018F01EC056
:101DF00019F01FC01AF0190E05D0D8901A321932F6
:101E000018321732E82EF9D71750222618502322FD
:101E1000195024221A5025221EC01FF01DC01EF08A
:101E20001CC01DF01C6A205021C017F0186A17262C
:101E3000000E1822820E1724266EFF0E1820276E21
:101E40000FD0D89022362336243625361FBE228066
:101E5000D8901C361D361E361F362606D8A02706FB
:101E600024AEEFD7000E206E1FAE17D0FF0E1C144D
:101E7000176EFF0E1D14186EFF0E1E14196E7F0EC6
:101E80001F141A6E1750181019101A10D8B403D056
:101E9000010E206E02D022B0FBD72050D8B41FD044
:101EA000010E2226000E23222422252225A017D04F
:101EB00022C017F023C018F024C019F025C01AF072
:101EC0001A341A3219321832173217C022F018C0D9
:101ED00023F019C024F01AC025F0264A272A27BE6D
:101EE0000DD0275003E12628D8A008D0000E226E7E
:101EF000000E236E800E246E7F0E20D027BE05D0EC
:101F000027500EE12604D8B00BD0000E226E000E32
:101F1000236E000E246E000E256E000E1B6E0FD079
:101F200026C021F0FF0E2216FF0E23167F0E241668
:101F3000000E251621B0248ED8902130256E1B501E
:101F4000251222C00FF023C010F024C011F025C0CC
:101F500012F012003850800B416E38503824436E16
:101F600037BE43804350D8B40DD04328D8A408D0FE
:101F7000000E356E000E366E000E376E000E386E97
:101F8000378E06D0000E356E000E366E000E376EA0
:101F9000000E386E3C50800B426E41504218D8A45F
:101FA000418C3C503C24426E3BBE42804250D8B4EF
:101FB0000DD04228D8A408D0000E396E000E3A6E1B
:101FC000000E3B6E000E3C6E3B8E06D0000E396E4E
:101FD000000E3A6E000E3B6E000E3C6E4350425CAB
:101FE000D8B022D041AC02D0800E411A43C044F098
:101FF00042C043F044C042F035C044F039C035F02F
:1020000044C039F036C044F03AC036F044C03AF02B
:1020100037C044F03BC037F044C03BF038C044F018
:102020003CC038F044C03CF0000E446E435042C007
:102030003DF03E6A3D5E000E3E5A3EBE2CD03E5004
:1020400004E11A0E3D5CD8A026D03550361037106A
:102050003810D8B402D0010E01D0000E446E000E2C
:10206000356E000E366E000E376E000E386E42C0B2
:1020700043F015D044A005D0D89044300109446EF7
:1020800002D0D890443235B0448E383438323732AA
:1020900036323532432A4250435CD8A0EBD741BC9C
:1020A00028D04350D8A409D0000E356E000E366EED
:1020B000000E376E000E386E1200395035263A5039
:1020C00036223B5037223C50382238A071D044A0F1
:1020D00005D0D89044300109446E02D0D8904432E3
:1020E00035B0448E38343832373236323532432ABE
:1020F0005FD03950355C3A5036583B5037583850DD
:10210000800A3D6E3C50800A3D58D8B025D03550ED
:10211000395C3D6E36503A583E6E37503B583F6EF4
:1021200038503C58406EFF0E3D24356EFF0E3E2069
:10213000366EFF0E3F20376EFF0E4020386E800E49
:10214000411A446C4450D8A40FD0010E3526000E1D
:1021500036223722382208D03950355E3A50365A66
:102160003B50375A3C50385A3550361037103810DB
:10217000D8A41CD04450D8A419D0000E356E000E3F
:10218000366E000E376E000E386E1200D89035365F
:1021900036363736383644BE358044A002D0D88033
:1021A00001D0D89044364350D8A4430637AEEED77A
:1021B000000E426E44AE0BD044C03DF07F0E3D1683
:1021C000D8B403D0010E426E02D035B0FBD74250D6
:1021D000D8B420D0010E3526000E36223722382200
:1021E00038A018D035C03DF036C03EF037C03FF0C3
:1021F00038C040F0403440323F323E323D323DC084
:1022000035F03EC036F03FC037F040C038F04328CC
:10221000D8A4432A4328D8B403D04350D8A40DD01F
:10222000000E356E000E366E000E376E000E386EE4
:102230004350D8A402D0000E416E43A002D0378E86
:1022400001D0379ED8904330386E41BE388E35C0AD
:1022500035F036C036F037C037F038C038F01200ED
:10226000346E6D0E3464ACD0000E136E000E146E1E
:10227000000E156E3F0E166E000E096E640E086E8F
:1022800034C006F0076A49EC19F0D89006360736D4
:10229000D89006360736480E0626000E0722350E61
:1022A0000624F66E100E0720F76E0900F5CF0FF02A
:1022B0000900F5CF10F00900F5CF11F00A00F5CFB5
:1022C00012F001EC0EF00FC030F010C031F011C070
:1022D00032F012C033F0000E096E0A0E086E000EC6
:1022E000046E640E036E34C001F0026A95EC19F0BE
:1022F00001C006F002C007F049EC19F0D89006368C
:102300000736D89006360736240E0626000E07221A
:10231000350E0624F66E100E0720F76E0900F5CF75
:1023200013F00900F5CF14F00900F5CF15F00A00FD
:10233000F5CF16F030C00FF031C010F032C011F000
:1023400033C012F001EC0EF00FC02CF010C02DF0D5
:1023500011C02EF012C02FF02CC00FF02DC010F0C5
:102360002EC011F02FC012F0000E046E0A0E036E84
:1023700034C001F0026A95EC19F0D89001360236AB
:10238000D89001360236350E0124F66E100E02206A
:10239000F76E0900F5CF13F00900F5CF14F009002E
:1023A000F5CF15F00A00F5CF16F001EC0EF00FC0D6
:1023B00028F010C029F011C02AF012C02BF0120032
:1023C0000A0E34646BD0000E136E000E146E000EF5
:1023D000156E3F0E166E000E096E0A0E086E34C0A2
:1023E00006F0076A49EC19F0D89006360736D890FF
:1023F00006360736240E0626000E0722350E062462
:10240000F66E100E0720F76E0900F5CF0FF00900E9
:10241000F5CF10F00900F5CF11F00A00F5CF12F05A
:1024200001EC0EF00FC030F010C031F011C032F0EE
:1024300012C033F030C00FF031C010F032C011F0D4
:1024400033C012F0000E046E0A0E036E34C001F0A9
:10245000026A95EC19F0D89001360236D890013610
:102460000236350E0124F66E100E0220F76E0900BA
:10247000F5CF13F00900F5CF14F00900F5CF15F0F2
:102480000A00F5CF16F001EC0EF00FC028F010C0D6
:1024900029F011C02AF012C02BF012003450040DA4
:1024A000350EF324F66E100EF420F76E0900F5CF0A
:1024B0000FF00900F5CF10F00900F5CF11F00A0078
:1024C000F5CF12F0000E136E000E146E000E156E96
:1024D0003F0E166E01EC0EF00FC028F010C029F070
:1024E00011C02AF012C02BF012000450800B116EA4
:1024F00004500424186E03BE18801850D8B40DD0B0
:102500001828D8A408D0000E016E000E026E000E2E
:10251000036E000E046E038E06D0000E016E000ED8
:10252000026E000E036E000E046E0850800B111A2E
:1025300008500824196E07BE19801950D8B40DD060
:102540001928D8A408D0000E056E000E066E000EE5
:10255000076E000E086E078E06D0000E056E000E88
:10256000066E000E076E000E086E0550061007106E
:102570000810D8A417D0000E016E000E026E000ED7
:10258000036E000E046E800E03127F0E04121150B3
:10259000041201C001F002C002F003C003F004C045
:1025A00004F012001850D8A409D0000E016E000EDD
:1025B000026E000E036E000E046E1200195018C059
:1025C00009F00A6A095E000E0A5A7F0E0924126E8B
:1025D000000E0A20136E01C00DF002C00EF003C001
:1025E0000FF004C010F0000E016E000E026E000E1F
:1025F000036E000E046E000E146E000E156E000EBB
:10260000166E000E176E000E196E28D01950D8B431
:1026100011D0D8900D360E360F361036D8900136C0
:1026200002360336043617BE0180D89014361536AC
:102630001636173605500D5C06500E5807500F58C9
:1026400008501058D8A009D0178C05500D5E0650C0
:102650000E5A07500F5A0850105A192A190E1964A9
:10266000D5D70D500E100F101010D8B411D0148003
:102670000FD0D890013602360336043617BE0180DB
:10268000D89014361536163617361206D8A013060B
:1026900003AEEFD7000E196E17AE17D0FF0E14144D
:1026A000096EFF0E15140A6EFF0E16140B6E7F0EC8
:1026B00017140C6E09500A100B100C10D8B403D06C
:1026C000010E196E02D001B0FBD71950D8B41FD03B
:1026D000010E0126000E02220322042204A017D0BC
:1026E00001C009F002C00AF003C00BF004C00CF0F6
:1026F0000C340C320B320A32093209C001F00AC024
:1027000002F00BC003F00CC004F0124A132A13BEEF
:1027100010D0135003E11228D8A00BD0000E136E76
:102720001268000E016E000E026E000E036E000EA7
:10273000046E13BE05D0135011E11204D8B00ED0B0
:10274000000E136E000E126E000E016E000E026E71
:10275000000E036E000E046E000E116E12C018F013
:1027600018A002D0038E01D0039ED8901830046EBA
:102770000ED7096E0950D8A404AE1AD001C005F0D6
:1027800002C006F003C007F004C008F0051E061ED4
:10279000071E081E052A000E06220722082205C071
:1027A0000BF006C00CF007C00DF008C00EF008D00A
:1027B00001C00BF002C00CF003C00DF004C00EF01D
:1027C0000150021003100410D8A409D0000E016EAD
:1027D000000E026E000E036E000E046E1200960EC6
:1027E0000A6E06D00A2AD8900E320D320C320B3205
:1027F000000E0B14056E000E0C14066E000E0D1468
:10280000076EFE0E0E14086E055006100710081015
:10281000D8B40DD0E7D70A2A010E0B26000E0C22E1
:102820000D220E22D8900E320D320C320B32000ED9
:102830000B14056E000E0C14066E000E0D14076EC0
:10284000FF0E0E14086E0550061007100810D8B4BD
:1028500007D0E1D70A06D8900B360C360D360E3667
:102860000DBE03D0020E0A60F5D70AA00D9ED890C7
:102870000A320AC005F0066A076A086A05C008F04D
:10288000076A066A056A05500B1206500C120750BB
:102890000D1208500E120950D8A404AE01D00E8EAD
:1028A0000BC001F00CC002F00DC003F00EC004F02C
:1028B0001200070EC26ED00E2C6ECA0EE82EFED786
:1028C0002C2EFCD7C282D00E2C6ECA0EE82EFED75C
:1028D0002C2EFCD7C450016E026A036A046A000EF3
:1028E000B9EC13F001C0C3F002C0C4F003C0C5F0DE
:1028F00004C0C6F0C3C00FF0C4C010F0C5C011F0D2
:10290000C6C012F0330E136E330E146E530E156ED6
:102910003C0E166E01EC0EF00FC0BBF010C0BCF008
:1029200011C0BDF012C0BEF0BBC001F0BCC002F0CF
:10293000BDC003F0BEC004F0CD0E056ECC0E066E19
:102940004C0E076E3E0E086E75EC12F001C0BFF023
:1029500002C0C0F003C0C1F004C0C2F0000E016E9E
:10296000000E026E800E036E410E046EBFC005F0B5
:10297000C0C006F0C1C007F0C2C008F068EC16F095
:10298000D8B00CD0D00E2C6ECA0EE82EFED72C2E4E
:10299000FCD7000EBE6E000E676EFFD7BFC001F001
:1029A000C0C002F0C1C003F0C2C004F0000E056E4A
:1029B000000E066E200E076E410E086E68EC16F0D3
:1029C000D8B00CD0D00E2C6ECA0EE82EFED72C2E0E
:1029D000FCD7000EBE6E000E676EFFD7BFC028F09A
:1029E000C0C029F0C1C02AF0C2C02BF0120003C041
:1029F00009F00A6A0B6A0234093601E30A800950B9
:102A0000116E1150D8A409D0000E016E000E026E96
:102A1000000E036E000E046E120007C009F00A6A71
:102A20000B6A0634093601E30A800950106E105013
:102A3000D8B4EAD7028EFF0E0116FF0E0216000E62
:102A40000316068EFF0E0516FF0E0616000E07165D
:102A5000000E0C6E000E0D6E000E0E6E000E0F6E50
:102A60007F0E115E1050980F115E180E106ED890E8
:102A70000C360D360E360F360550015C06500258E6
:102A800007500358D8A007D00550015E0650025ADF
:102A90000750035A0C80D890013602360336102EA8
:102AA000E6D711AE0DD01150800A970FD8A0ACD741
:102AB000D8900F320E320D320C32113EF9D70DD0B4
:102AC000170E116407D0A0D7D8900C360D360E36ED
:102AD0000F3611061150D8A4F7D70CC001F00DC065
:102AE00002F00EC003F00FC004F0120003340434EF
:102AF0000E6E0E50D8A409D0000E016E000E026EAC
:102B0000000E036E000E046E1200073408340D6EC2
:102B10000D50D8B4F1D7038EFF0E0116FF0E02162A
:102B2000FF0E0316000E0416078EFF0E0516FF0E8D
:102B30000616FF0E0716000E0816000E096E000E90
:102B40000A6E000E0B6E000E0C6E7F0E0E5E0D50A8
:102B5000A00F0E5E200E0D6ED89009360A360B3689
:102B60000C360550015C06500258075003580850B7
:102B70000458D8A009D00550015E0650025A0750EB
:102B8000035A0850045A0980D89001360236033699
:102B900004360D2EE1D70EAE0DD00E50800A9F0FD9
:102BA000D8A0AAD7D8900C320B320A3209320E3E86
:102BB000F9D70DD01F0E0E6407D09ED7D8900936D6
:102BC0000A360B360C360E060E50D8A4F7D709C0BD
:102BD00001F00AC002F00BC003F00CC004F01200B8
:102BE000030EC26ED00E2C6ECA0EE82EFED72C2E0F
:102BF000FCD7C282D00E2C6ECA0EE82EFED72C2E29
:102C0000FCD7C450016E026A036A046A000EB9EC74
:102C100013F001C0CFF002C0D0F003C0D1F004C067
:102C2000D2F0CFC00FF0D0C010F0D1C011F0D2C0A0
:102C300012F0330E136E330E146E530E156E3C0EDF
:102C4000166E01EC0EF00FC0CBF010C0CCF011C02E
:102C5000CDF012C0CEF0CBC0C7F0CCC0C8F0CDC014
:102C6000C9F0CEC0CAF0000E016E000E026E200E3A
:102C7000036E410E046EC7C005F0C8C006F0C9C09F
:102C800007F0CAC008F068EC16F0D8B018D0D00E23
:102C90002C6ECA0EE82EFED72C2EFCD7000EBE6E70
:102CA000000E676E090E2D6E1E0E2C6EE40EE82EC1
:102CB000FED72C2EFCD72D2EFAD700D0F3D7C7C0C5
:102CC00028F0C8C029F0C9C02AF0CAC02BF01200F1
:102CD000000E0114096E000E02140A6E800E031419
:102CE0000B6E7F0E04140C6E09500A100B100C10A2
:102CF000D8A408D0000E016E000E026E000E036E06
:102D0000000E046E000E0514096E000E06140A6E05
:102D1000800E07140B6E7F0E08140C6E09500A10FB
:102D20000B100C10D8A408D0000E056E000E066E15
:102D3000000E076E000E086E04AE09D0016C021E74
:102D4000D8B0022A031ED8B0032A800E045608AE5B
:102D500009D0056C061ED8B0062A071ED8B0072A6F
:102D6000800E0856000E011A000E021A000E031AF9
:102D7000800E041A000E051A000E061A000E071A1D
:102D8000800E081A0550015C06500258075003587F
:102D900008500458D8B002D0D8901200D880120041
:102DA0002A342B34316E3150D8A409D0000E286E4D
:102DB000000E296E000E2A6E000E2B6E120028C027
:102DC0002CF029C02DF02AC02EF02BC02FF0200EA1
:102DD00005D0D8902F322E322D322C32E82EF9D752
:102DE0002C50306E2A8EFF0E2816FF0E2916FF0E6D
:102DF0002A16000E2B16960E315E31AE0DD03150D4
:102E0000800A970FD8A0D2D7D8902B322A322932F5
:102E10002832313EF9D70DD01F0E316407D0C6D706
:102E2000D890283629362A362B3631063150D8A488
:102E3000F7D73050D8B408D02B1E2A1E291E286C74
:102E4000000E29222A222B2228C028F029C029F08E
:102E50002AC02AF02BC02BF01200000E0114096EBC
:102E6000000E02140A6E800E03140B6E7F0E041403
:102E70000C6E09500A100B100C10D8A408D0000ECC
:102E8000016E000E026E000E036E000E046E000E48
:102E90000514096E000E06140A6E800E07140B6EE0
:102EA0007F0E08140C6E09500A100B100C10D8A4D9
:102EB00008D0000E056E000E066E000E076E000EA6
:102EC000086E055001180AE10650021807E1075084
:102ED000031804E108500418D8B402D0D8901200A6
:102EE000D88012005C685D68958E959C70860BD0CA
:102EF0001A0E766E0A0E05D0400E03D02A0E01D0AF
:102F0000240E756E26D040C142F141C143F101014A
:102F10004351090AD8B40AD0420AD8B40CD03B0AAB
:102F2000D8B40ED0F30AD8B410D013D04251600AEE
:102F3000D8B4DED70ED04251000AD8B4DDD709D0BC
:102F40004251800AD8B4DAD704D04251400AD8B4EA
:102F5000D7D7729C728A72987284718E719C7188B4
:102F60007196A39AF28E1200000E0C6E0AAE06D075
:102F7000096C0A1ED8B00A2A010E0C6E08AE06D0E3
:102F8000076C081ED8B0082A010E0C1A000E0E6E2F
:102F9000000E0D6E09500A10D8B41CD0010E0B6E35
:102FA00004D0D89009360A360B2A0AAEFAD7D89040
:102FB0000D360E360950075C0A500858D8A005D0C7
:102FC0000950075E0A50085A0D80D8900A3209321B
:102FD0000B2EEDD70C50D8B404D00D6C0E1ED8B00B
:102FE0000E2A0DC007F00EC008F01200000E096E88
:102FF000000E0A6E000E0B6E000E0C6E05500610D1
:1030000007100810D8B42AD0010E0D6E06D0D89043
:1030100005360636073608360D2A08AEF8D7D8909A
:1030200009360A360B360C360550015C065002583C
:103030000750035808500458D8A009D00550015E25
:103040000650025A0750035A0850045A0980D89073
:1030500008320732063205320D2EE1D709C001F0E1
:103060000AC002F00BC003F00CC004F012001BEC0D
:1030700019F0D2EC19F064EC1AF0B6EC19F08C905F
:103080008C828CA202D08C8401D08C94000EBE6EF7
:10309000BECF67FF000EB36E000EB26EB2CFCEFF92
:1030A000B3CFCFFF090E0101456F1E0E446FE40E32
:1030B000E82EFED7442FFCD7452FFAD700F0520E4A
:1030C0000101456F2B0E446F000EE82EFED7442FF2
:1030D000FCD7452FFAD700F080AEF1D7000EBE6EB8
:1030E000BECF67FF8C80EBD75C685D6809D0CF0EE0
:1030F00005D0330E03D02A0E01D0240EAF6E26D099
:1031000040C142F141C143F101014351250AD8B404
:103110000AD06E0AD8B40CD03B0AD8B40ED0F30A49
:10312000D8B410D013D04251800AD8B4E0D70ED012
:103130004251000AD8B4DDD709D04251800AD8B430
:10314000DAD704D04251400AD8B4D7D7AC9CAC8A65
:10315000AC98AC94AB8EAB9CAB88AB96F28E120065
:10316000000E066E02AE06D0016C021ED8B0022A16
:10317000010E066E04AE04D0036C041ED8B0042AFF
:1031800003500410D8B418D0010E056E04D0D890A6
:1031900003360436052A04AEFAD70350015C045006
:1031A0000258D8A004D00350015E0450025AD890AF
:1031B00004320332052EF1D70650D8B404D0016C86
:1031C000021ED8B0022A01C001F002C002F01200B3
:1031D0000550061007100810D8B424D0010E096E4F
:1031E00006D0D8900536063607360836092A08AEC6
:1031F000F8D70550015C0650025807500358085094
:103200000458D8A008D00550015E0650025A075055
:10321000035A0850045AD890083207320632053251
:10322000092EE7D701C001F002C002F003C003F08D
:1032300004C004F01200000E926E000E936E000E99
:10324000946E000E956E9668000E806E000E816E74
:10325000000E826E000E836E000E846E000E896E6C
:10326000000E8A6E000E8B6E000E8C6E000E8D6E40
:10327000000E0F01386F000E396F000E3A6F000E0E
:103280003B6F000E3C6F95509550740ED36E9B8C27
:103290001200000E0B6E000E0A6E08500910D8B412
:1032A0001CD0010E0C6E04D0D890083609360C2ABA
:1032B00009AEFAD7D8900A360B360850065C09508A
:1032C0000758D8A005D00850065E0950075A0A8052
:1032D000D890093208320C2EEDD70AC006F00BC088
:1032E00007F01200000E491A000E4A1A000E4B1A7F
:1032F000800E4C1A45C035F046C036F047C037F056
:1033000048C038F049C039F04AC03AF04BC03BF0F1
:103310004CC03CF0AAEC0FF035C045F036C046F08A
:1033200037C047F038C048F0120003500410D8B43A
:1033300018D0010E056E04D0D89003360436052A45
:1033400004AEFAD70350015C04500258D8A004D050
:103350000350015E0450025AD89004320332052E05
:10336000F1D701C001F002C002F012004B0E0101C2
:10337000416F000E406F74EC18F0090E0101416FAF
:10338000600E406F72EC17F0910E0101416F100E4C
:10339000426F1AEC1AF071EC1AF0F28EF28CA38ADA
:1033A0009D8A1200000E0F01496F0C0E666E0C0E06
:1033B000BD6E7D0EBA6EA00EBB6E800E676E400EA7
:1033C000BE6E0C0E5D6F800E5E6F000EBE6E000E48
:1033D000676E000E5E6F120001EE00F0400EEE6AA6
:1033E000E806FDE100EE9DF03C0EEE6AE806FDE128
:1033F0005B6A5A6A596A586A5E905E92000EF86E6D
:10340000000137EF18F00150021003100410D8B477
:1034100008D0000E011A000E021A000E031A800EC8
:10342000041A01C001F002C002F003C003F004C09E
:1034300004F012000BD041C1F6FF42C1F7FF0800B3
:10344000F55078EC1AF00101414B422B41C1F6FFD7
:1034500042C1F7FF0800F5500009D8B41200EBD7BD
:1034600001500302F3CF05F0F4CF06F0015004023F
:10347000F350062602500302F350062605C001F061
:1034800006C002F0120009D002C0D9FF03C0DAFF63
:10349000DF507FEC1AF0024A032A02C0D9FF03C0B2
:1034A000DAFFDF50D8B41200EFD7036E000E026EC1
:1034B0003A0E036005D02F0E036402D0010E026E97
:1034C00002C001F00130120092800F013881928217
:1034D0003883030EC26E800EC16E3E0EC06EC09E5B
:1034E00012000D0E78EC1AF00A0E78EC1AF01200A9
:1034F0000101406FA4A8FED740C173FF1200016E06
:0A3500009EA8FED701C0ADFF120027
:020000040020DA
:08000000FFFFFFFFFFFFFFFF00
:020000040030CA
:0E000000FF28193CFFBD80FF0FC00FE00F402E
:00000001FF
