:020000040000FA
:0400000017EF00F006
:100008005F82F3CF38F0F4CF39F09EAA06D09E9ADB
:10001800AECF3AF03A5080EC0CF039C0F4FF38C05B
:0A002800F3FF5F921100B0EF0CF03F
:1010000000555341525420696E697469616C697A64
:051010006564210000F1
:101016001250800B1B6E12501224216E11BE2180BD
:101026002150D8B40DD02128D8A408D0000E0F6EB8
:10103600000E106E000E116E000E126E118E08D08C
:10104600000E0F6E000E106E000E116E000E126E68
:101056001650800B1B1A16501624206E15BE2080C3
:101066002050D8B40DD02028D8A408D0000E136E76
:10107600000E146E000E156E000E166E158E08D03C
:10108600000E136E000E146E000E156E000E166E18
:101096002050D8B403D02150D8A409D0000E0F6E2A
:1010A600000E106E000E116E000E126E120015501C
:1010B6000F02F3CF26F0F4CF27F026501C6E1D6AE0
:1010C6001E6A1F6A2750226E236A246A256A1450F4
:1010D6001002F3CF26F0F4CF27F026501C26000E80
:1010E6001D221E221F2227502226000E23222422E2
:1010F600252213501102F3CF26F0F4CF27F0265005
:101106001C26000E1D221E221F2227502226000EFC
:101116002322242225221EC01FF01DC01EF01CC043
:101126001DF01C6A13501002F3CF26F0F4CF27F0FF
:1011360026501C2627501D22000E1E22000E1F229E
:1011460014500F02F3CF26F0F4CF27F026501C26BA
:1011560027501D22000E1E22000E1F221EC01FF049
:101166001DC01EF01CC01DF01C6A13500F02F3CFE9
:1011760026F0F4CF27F026501C2627501D22000EFD
:101186001E22000E1F2215501002F3CF26F0F4CFB8
:1011960027F02650222627502322000E2422000E56
:1011A600252214501102F3CF26F0F4CF27F0265053
:1011B600222627502322000E2422000E2522155017
:1011C6001102F3CF26F0F4CF27F02650176E2750E2
:1011D600186E196A1A6A19C01AF018C019F017C0E1
:1011E60018F0176A17502226185023221950242265
:1011F6001A5025221CC017F01DC018F01EC019F089
:101206001FC01AF0190E05D0D8901A3219321832AA
:101216001732E82EF9D717502226185023221950D4
:1012260024221A5025221EC01FF01DC01EF01CC00D
:101236001DF01C6A205021C017F0186A1726000EF0
:101246001822820E1724266EFF0E1820276E0FD046
:10125600D89022362336243625361FBE2280D890D3
:101266001C361D361E361F362606D8A0270624AE87
:10127600EFD7000E206E1FAE17D0FF0E1C14176E90
:10128600FF0E1D14186EFF0E1E14196E7F0E1F140E
:101296001A6E1750181019101A10D8B403D0010E70
:1012A600206E02D022B0FBD72050D8B41FD0010E3A
:1012B6002226000E23222422252225A017D022C072
:1012C60017F023C018F024C019F025C01AF01A34FC
:1012D6001A3219321832173217C022F018C023F00A
:1012E60019C024F01AC025F0264A272A27BE0DD099
:1012F600275003E12628D8A008D0000E226E000E43
:10130600236E800E246E7F0E20D027BE05D0275078
:101316000EE12604D8B00BD0000E226E000E236E0E
:10132600000E246E000E256E000E1B6E0FD026C01A
:1013360021F0FF0E2216FF0E23167F0E2416000E36
:10134600251621B0248ED8902130256E1B502512EB
:1013560022C00FF023C010F024C011F025C012F0F7
:101366001200096E0950D8A404AE1AD001C005F0C7
:1013760002C006F003C007F004C008F0051E061EF2
:10138600071E081E052A000E06220722082205C08F
:101396000BF006C00CF007C00DF008C00EF008D028
:1013A60001C00BF002C00CF003C00DF004C00EF03B
:1013B6000150021003100410D8A409D0000E016ECB
:1013C600000E026E000E036E000E046E1200960EE4
:1013D6000A6E06D00A2AD8900E320D320C320B3223
:1013E600000E0B14056E000E0C14066E000E0D1486
:1013F600076EFE0E0E14086E055006100710081034
:10140600D8B40DD0E7D70A2A010E0B26000E0C22FF
:101416000D220E22D8900E320D320C320B32000EF7
:101426000B14056E000E0C14066E000E0D14076EDE
:10143600FF0E0E14086E0550061007100810D8B4DB
:1014460007D0E1D70A06D8900B360C360D360E3685
:101456000DBE03D0020E0A60F5D70AA00D9ED890E5
:101466000A320AC005F0066A076A086A05C008F06B
:10147600076A066A056A05500B1206500C120750D9
:101486000D1208500E120950D8A404AE01D00E8ECB
:101496000BC001F00CC002F00DC003F00EC004F04A
:1014A6001200336E640E336402D0640E336E640E23
:1014B600326402D0640E326E9A0E136E990E146E5A
:1014C600D90E156E3F0E166E3350016E026A036A10
:1014D600046A000EB4EC09F001C00FF002C010F06F
:1014E60003C011F004C012F00BEC08F00FC028F096
:1014F60010C029F011C02AF012C02BF0C2EC0AF07D
:101506002850346E34C001F0026A000E046E020EDA
:10151600036E61EC0BF00150BE6E9A0E136E990EBF
:10152600146ED90E156E3F0E166E3250016E026A9B
:10153600036A046A000EB4EC09F001C00FF002C0A1
:1015460010F003C011F004C012F00BEC08F00FC04D
:1015560028F010C029F011C02AF012C02BF0C2ECFE
:101566000AF02850346E34C001F0026A000E046E90
:10157600020E036E61EC0BF00150676E12002A3406
:101586002B34316E3150D8A409D0000E286E000ECF
:10159600296E000E2A6E000E2B6E120028C02CF04B
:1015A60029C02DF02AC02EF02BC02FF0200E05D01A
:1015B600D8902F322E322D322C32E82EF9D72C50DD
:1015C600306E2A8EFF0E2816FF0E2916FF0E2A16DB
:1015D600000E2B16960E315E31AE0DD03150800ABC
:1015E600970FD8A0D2D7D8902B322A322932283258
:1015F600313EF9D70DD01F0E316407D0C6D7D8902B
:10160600283629362A362B3631063150D8A4F7D754
:101616003050D8B408D02B1E2A1E291E286C000E66
:1016260029222A222B2228C028F029C029F02AC0E4
:101636002AF02BC02BF012005D685E68958E959C93
:1016460070860BD01A0E766E0A0E05D0400E03D0A9
:101656002A0E01D0240E756E26D0BAC0BCF0BBC0CF
:10166600BDF00001BD51090AD8B40AD0420AD8B467
:101676000CD03B0AD8B40ED0F30AD8B410D013D08D
:10168600BC51600AD8B4DED70ED0BC51000AD8B41B
:10169600DDD709D0BC51800AD8B4DAD704D0BC5102
:1016A600400AD8B4D7D7729C728A72987284718EA7
:1016B600719C71887196A39AF28E1200000E066EC6
:1016C60004AE06D0036C041ED8B0042A010E066EC2
:1016D60002AE06D0016C021ED8B0022A010E061A0E
:1016E600000E086E000E076E03500410D8B41CD00E
:1016F600010E056E04D0D89003360436052A04AED2
:10170600FAD7D890073608360350015C04500258C1
:10171600D8A005D00350015E0450025A0780D89025
:1017260004320332052EEDD70650D8B404D0076C28
:10173600081ED8B0082A07C001F008C002F012003F
:101746001CEC0CF066EC0CF0C3EC0CF04AEC0CF064
:101756008C908C828CA202D08C8401D08C94000E4A
:10176600BE6EBECF67FF000EB36E000EB26EB2CF76
:10177600CEFFB3CFCFFF090E0001BF6F1E0EBE6FA7
:10178600E40EE82EFED7BE2FFCD7BF2FFAD700F007
:10179600090E0001BF6F1E0EBE6FE40EE82EFED7C7
:1017A600BE2FFCD7BF2FFAD700F080AEF1D7000EC0
:1017B600BE6EBECF67FF8C80EBD75D685E6809D0D2
:1017C600CF0E05D0330E03D02A0E01D0240EAF6EF5
:1017D60026D0BAC0BCF0BBC0BDF00001BD51250A81
:1017E600D8B40AD06E0AD8B40CD03B0AD8B40ED0FE
:1017F600F30AD8B410D013D0BC51800AD8B4E0D7BD
:101806000ED0BC51000AD8B4DDD709D0BC51800A2D
:10181600D8B4DAD704D0BC51400AD8B4D7D7AC9CD8
:10182600AC8AAC98AC94AB8EAB9CAB88AB96F28E84
:101836001200000E926E000E936E000E946E000E55
:10184600956E9668000E806E000E816E000E826E9A
:10185600000E836E000E846E000E896E000E8A6E78
:10186600000E8B6E000E8C6E000E8D6E000E0F013C
:10187600386F000E396F000E3A6F000E3B6F000E88
:101886003C6F95509550740ED36E9B8C12004B0E88
:101896000001BB6F000EBA6FE0EC0BF0090E000101
:1018A600BB6F600EBA6F1FEC0BF0010E0001BB6F31
:1018B600100EBC6F9AEC0CF0D0EC0CF0F28EF28CA1
:1018C600A38A9D8A1200000E0F01496F0C0E666EE8
:1018D6000C0EBD6E7D0EBA6EA00EBB6E800E676ED0
:1018E600400EBE6E0C0E5D6F800E5E6F000EBE6EFD
:1018F600000E676E000E5E6F1200356E000E366EBD
:101906003550370DF3CF01F0F4CF02F0000E046E20
:10191600640E036E61EC0BF00150376E37506408AD
:10192600366E36C032F0375054EC0AF012000BD047
:10193600BBC0F6FFBCC0F7FF0800F550D7EC0CF0B3
:101946000001BB4BBC2BBBC0F6FFBCC0F7FF0800B9
:10195600F5500009D8B41200EBD700EE60F05A0E2D
:10196600EE6AE806FDE100EE3BF0220EEE6AE806BE
:10197600FDE15F905F92000EF86E0001A3EF0BF0A1
:1019860092800F01388192823883030EC26E800ED8
:10199600C16E3E0EC06EC09E12000D0ED7EC0CF04E
:1019A6000A0ED7EC0CF012000001BA6FA4A8FED7FD
:0619B600BAC073FF12002D
:020000040020DA
:08000000FFFFFFFFFFFFFFFF00
:020000040030CA
:0E000000FF28193CFFBD80FF0FC00FE00F402E
:00000001FF
